:100000000C9434000C9446000C9446000C9446006A
:100010000C9446000C9446000C9446000C94460048
:100020000C9446000C9446000C9446000C94460038
:100030000C9446000C9446000C9446000C94460028
:100040000C9446000C9446000C9446000C94460018
:100050000C9446000C9483040C9446000C944600C7
:100060000C9446000C94460011241FBECFEFD4E040
:10007000DEBFCDBF14E0A0E0B1E001C01D92AD38FD
:10008000B107E1F70E9491030C94A7050C940000BE
:100090003D0A4F0A850AE00A5E0B010CC60CAE0D44
:1000A000B80EE40F31119D122914D3159A177D193A
:1000B0007C1B931DC41F0B226824D9265C29F12BBD
:1000C000962E48310634CF36A1397A3C583F3A4211
:1000D0001E450148E34AC14D9A506C533556F458B9
:1000E000A65B4A5EDF606363D4653168786AA86C9A
:1000F000C06EBE70A172687412769E770B79577AC3
:10010000837B8D7C757D3B7EDD7E5B7FB67FEC7F68
:10011000FE7FEC7FB67F5B7FDD7E3B7E757D8D7CD9
:10012000837B577A0B799E7712766874A172BE70C2
:10013000C06EA86C786A3168D4656363DF604A5E1C
:10014000A65BF45835566C539A50C14DE34A0148AA
:100150001E453A42583F7A3CA139CF3606344831E1
:10016000962EF12B5C29D92668240B22C41F931DDF
:100170007C1B7E199A17D31529149D123111E40F97
:10018000B80EAE0DC60C010C5E0BE00A850A4F0AD4
:10019000FF7F0000D77F4706617F8B0C9C7EC712D4
:1001A000897DF818297C191F7C7A272583781E2BD6
:1001B0004076FB30B573B936E170563CC96DCD4120
:1001C0006C6A1C47CE663F4CF1623351D65EF455E3
:1001D000815A815AF455D65E3351F1623F4CCE6656
:1001E0001C476C6ACD41C96D563CE170B936B57398
:1001F000FB3040761E2B837827257C7A191F297CBB
:10020000F818897DC7129C7E8B0C617F4706D77FCB
:100210000000FE7FB9F9D77F75F3617F39ED9C7ED1
:1002200008E7897DE7E0297CD9DA7C7AE2D4837813
:1002300005CF407647C9B573AAC3E17033BEC96D17
:10024000E4B86C6AC1B3CE66CDAEF1620CAAD65EDC
:100250007FA5815A2AA1F5550F9D335132993F4C04
:1002600094951C473792CD411F8F563C4C8CB93624
:10027000C089FB307D871E2B84852725D883191FD5
:100280007782F8186481C7129F808B0C29804706FB
:10029000000000018000800140004001C000C0015A
:1002A00020002001A000A00160006001E000E0014A
:1002B000100010019000900150005001D000D001BA
:1002C00030003001B000B00170007001F000F001AA
:1002D000080008018800880148004801C800C801DA
:1002E00028002801A800A80168006801E800E801CA
:1002F000180018019800980158005801D800D8013A
:1003000038003801B800B80178007801F800F80129
:100310003F922F921F930F93DF93CF93DC01EB015A
:100320009927E0E9F0E000E810E0259135914D9142
:100330005D91B503B0012C031001691FBC03790B5B
:10034000300C611D791FDA03790B300C611D791FA8
:1003500069937993699379930150104031F7CF9164
:10036000DF910F911F912F903F90112408953F929C
:100370002F925F924F927F926F929F928F92BF9235
:10038000AF92DF92CF92FF92EF921F930F93DF9382
:10039000CF93FC0181E090E0A0E4B0E004E0809F16
:1003A0006001909FD00C7C019F938F93EF01A09FE1
:1003B000C00DD11DB09FD00DFF93EF93BB24AA2495
:1003C0009927008111811595079568817981759527
:1003D0006795A801061B170B460F571F41935193B2
:1003E00020813181359527956A817B817595679547
:1003F000A901261B370B460F571F419351930F013D
:10040000E0E9F1E0EA0DFB1D45915591659175918B
:10041000F001950320010C031001491E9C03590AA9
:10042000300C411C591ED803590A300C411C591E6E
:10043000B70340012E033001891EBE03990A700CD8
:10044000811C991EFA03990A700C811C991E260CB6
:10045000371C481C591C49925992B50320012C03A2
:100460001001491EBC03590A300C411C591EDA0305
:10047000590A300C411C591E970340010E033001EC
:10048000891E9E03990A700C811C991EF803990A13
:10049000700C811C991E2618370848085908499283
:1004A0005992AC0CBD1CB0FE8CCF04E0A09FC00DD7
:1004B000D11DE00DF11DB09FD00DF00D81E0E81AC7
:1004C000F90A09F07BCFEF91FF918F919F91880FEF
:1004D000991FB695A795109609F060CFCF91DF913F
:1004E0000F911F91EF90FF90CF90DF90AF90BF9052
:1004F0008F909F906F907F904F905F902F903F9044
:1005000008953F922F925F924F927F926F929F92A7
:100510008F92BF92AF921F930F93DF93CF935C01A3
:10052000EB01E0E9F2E0992700E410E0A591B59134
:10053000AA0DBB1D2D913D914D915D91B3032001FD
:100540002A031001491EBA03590A300C411C591ED6
:10055000BA03590A300C411C591ED50340014C0303
:100560003001891EDC03990A700C811C991EDC0382
:10057000990A700C811C991E260C371C481C591CAA
:10058000662477248824992421E030E044275527E5
:1005900070E1220C331C441C551C661C771C881C03
:1005A000991C220C331C441C551C661C771C881C8F
:1005B000991C2AF4620E731E841E951E04C0621AD2
:1005C000730A840A950A220F331F441F287F25606F
:1005D00097FC22507A95E9F64695379527954695EA
:1005E00037952795299339930150104009F09ECFF4
:1005F000CF91DF910F911F91AF90BF908F909F90FF
:100600006F907F904F905F902F903F9011240895AE
:10061000AC019927D703F0014E03D001E91FDE0397
:10062000F90BB00DE11DF91FFC03F90BB00DE11D35
:10063000F91FCF0111240895EEE7F0E08081816079
:100640008083ECE7F0E08081806E8083EAE7F0E071
:1006500080818C6A8083EBE7F0E080818560808315
:100660000895E1E8F0E080818A608083109289003B
:1006700084E68093880010928B0010928A0008957F
:100680008AB180668AB984B5836A84BD85B5826083
:1006900085BD17BC18BC0895539AE0EBF0E080814B
:1006A00083628083E1EBF0E080818460808310923C
:1006B000B400089585B7806185BFE1ECF0E0108259
:1006C0001092C00086E08093C20088E08093C4004E
:1006D0001092C50080830895893C910520F48930EB
:1006E000910530F002C08FEF90E0559A87BD0895D4
:1006F000559808958930910518F0569A88BD089547
:1007000056980895893C910520F48930910538F078
:1007100002C08FEF90E0539A8093B40008955398ED
:1007200008952F923F924F925F926F927F928F9295
:100730009F92AF92BF92CF92DF92EF92FF920F9370
:100740001F93CF93DF93F8940E941C030E945A03D7
:10075000259A0E9431030E9440030E944C03789422
:100760000F2EFBE06F2EF3E07F2EF02D0F2EF1E029
:10077000EF2EF1E0FF2EF02D0F2EFAE7CF2EDD2425
:10078000F02D0F2EFBE08F2EF4E09F2EF02D442451
:100790005524689441F8480C591C0F2EFFE02F2E69
:1007A000F4E03F2EF02D0F2EF5E1AF2EF4E0BF2E3A
:1007B000F02D85010C5E1F4FE501CA58DF4F809177
:1007C00000018F37E0F3C301B7010E948801109246
:1007D0000001F6018081806E8083C7010E94B7010D
:1007E000C701B4010E948102109206031092050312
:1007F000109202031092010380E090E0F201208148
:1008000031812930310510F0822F90E0F1012081F3
:1008100031812930310510F0820F911DE1E1F4E0C2
:10082000208131812930310510F0820F911D909384
:100830000803809307032091050330910603F50117
:10084000819191918630910528F090E0880F991F51
:10085000280F391FE017F10799F73093060320930B
:1008600005032091010330910203EBE2F4E0819152
:1008700091918630910528F090E0880F991F280FFC
:10088000391FEC17FD0799F73093020320930103FA
:1008900040910703509108038091090390910A0346
:1008A000840F951F9695879590930A03809309036B
:1008B000609105037091060340918B0450918C0464
:1008C000460F571F5695479550938C0440938B04C1
:1008D0004091030350910403240F351F369527954B
:1008E00030930403209303030E94820380918B04BE
:1008F00090918C040E946C038091030390910403F7
:100900000E947A035CCF1F920F920FB60F921124B0
:100910008F939F93EF93FF93809100018823A4F01E
:10092000E091000180917900F0E0EE0FFF1FE55F9C
:10093000FC4F90E08F57904091838083809100011D
:100940008F5F8093000105C0EAE7F0E080818F7738
:10095000808395B180E2892785B986B3896F86BB8C
:10096000FF91EF919F918F910F900FBE0F901F906D
:1009700018950FB680959AE0F89479E87A95F1F792
:1009800008F02E9808F42E9A86959A95B1F70FBE26
:100990000895FC018591882311F0EBDFFBCF0895CA
:1009A0003327E0E2F0E267FF08C0619597FF05C0DA
:1009B000EDE280959095811D911D47FF02C0419504
:1009C000F0E350E17727880F991F771F761710F013
:1009D000761B83955A95B9F77A3008F0795F705D88
:1009E0007F9333958517950761F7ED3211F4EF93F7
:1009F0003395341718F4FF933395FBCF8F91B9DFFC
:100A00003A95E1F70895ADB7BEB71396ED91FD9114
:100A10008591803021F0853219F0ABDFF9CF089550
:100A200040E0E89485918532C1F3803311F46894F5
:100A300085918A3348F4805390F3440F042E440F79
:100A4000440F400D480FF4CF782F8D919D91733650
:100A500021F37337A1F0783560E149F075376AE02A
:100A600031F0743666EF19F0723662E0C1F60EF4BA
:100A70004195FF93EF9394DFEF91FF91C9CFFF93DF
:100A8000EF9387DFF9CF0FB680E8F8941D99FECF7A
:100A90001D9BFECF95E49A95F1F79AE89A95F1F7A8
:100AA00086951D9B8068C8F70FBE0895FC0151E034
:100AB000EADF8D3079F0883041F05617C8F7803280
:100AC000B8F38193539555DFF3CF513089F35A959D
:100AD0003197F9CF4EDF10820895FC01A191B191B9
:100AE00022273327E8948C918D3211F468941FC02B
:100AF0008032F8F029F41196F6CF8C918132D8F03B
:100B0000813608F080528053A0F08A3018F081318D
:100B100080F08750841768F491E1551B08F4540F56
:100B20005795379527959A95C9F7280F311D119636
:100B3000E4CF882706C081E026F420953095211D5A
:100B4000311DB293A293FB01219331930895F89440
:020B5000FFCFD5
:00000001FF
